S01200004D595F5333324B3134342E7372656371
S1130000007000201104000051040000510400009D
S113001051040000510400005104000000000000DD
S11300200000000000000000000000005104000077
S113003051040000000000005104000051040000BD
S11300405104000051040000510400005104000058
S11300505104000051040000510400005104000048
S11300605104000051040000510400005104000038
S11300705104000051040000510400005104000028
S11300805104000051040000510400005104000018
S11300905104000051040000A904000051040000B0
S11300A051040000510400005104000051040000F8
S11300B051040000510400005104000051040000E8
S11300C051040000510400005104000051040000D8
S11300D0510400005104000051040000B50B00005D
S11300E051040000510400005104000051040000B8
S11300F051040000510400005104000051040000A8
S113010011050000490500005505000061050000C7
S11301105104000051040000510400005104000087
S11301205104000051040000510400005104000077
S11301305104000051040000510400005104000067
S11301405104000051040000510400005104000057
S11301505104000051040000510400005104000047
S11301605104000051040000510400005104000037
S11301705104000051040000510400005104000027
S1130180510400005D0A0000510400005104000005
S11301905104000051040000510400005104000007
S11301A051040000510400005104000051040000F7
S11301B051040000510400005104000051040000E7
S11301C051040000510400005104000035070000F0
S11301D09D07000051040000510400005104000078
S11301E0DD07000051040000510400005104000028
S11301F051040000510400005104000051040000A7
S1130200510400005104000045080000510400009E
S11302105104000051040000510400005104000086
S11302205104000051040000510400005104000076
S11302305104000051040000510400005104000066
S11302405104000051040000510400005104000056
S11302505104000051040000510400005104000046
S11302605104000051040000510400005104000036
S11302705104000051040000510400005104000026
S11302805104000051040000510400005104000016
S11302905104000051040000510400005104000006
S11302A051040000510400005104000051040000F6
S11302B051040000510400005104000051040000E6
S11302C051040000510400005104000051040000D6
S11302D051040000510400005104000051040000C6
S11302E051040000510400005104000051040000B6
S11302F051040000510400005104000051040000A6
S11303005104000051040000510400005104000095
S11303105104000051040000510400005104000085
S11303205104000051040000510400005104000075
S11303305104000051040000510400005104000065
S11303405104000051040000510400005104000055
S11303505104000051040000510400005104000045
S11303605104000051040000510400005104000035
S11303705104000051040000510400005104000025
S11303805104000051040000510400005104000015
S11303905104000051040000510400005104000005
S11303A051040000510400005104000051040000F5
S11303B051040000510400005104000051040000E5
S11303C051040000510400005104000051040000D5
S11303D051040000510400005104000051040000C5
S11303E051040000510400005104000051040000B5
S11303F0510400005104000051040000FFFFFFFFFE
S1130400FFFFFFFFFFFFFFFFFFFFFFFFFE7FFFFF79
S113041072B60B490A4A0A4B094C094D084E084F5B
S1130420B846B946BA46BB46BC4606488546064861
S113043080470648804762B600F098F8FEE700005F
S11304400000000000700020C90B0000F90B000040
S1130450FFF7FEBF80B400AF114B124A5A6000BFD1
S11304600F4B1B6803F40063DB0A002BF8D00C4A23
S11304700B4B1B6823F080031360094A084B1B686D
S113048043F00403136000BF054B1B6803F40063CF
S1130490DB0A012BF8D0BD465DF8047B704700BF32
S11304A00020054020C528D980B500AF0A4B0B4A6F
S11304B05A6000BF084B1B6803F40063002BF9D09B
S11304C0054A054B1B6843F480431360044810211C
S11304D0002200F0E1F880BD0020054020C528D9A5
S11304E0C0F00F4080B483B000AF0346FB710749EE
S11304F0064BDB68FA79012000FA02F21343CB6061
S11305000C37BD465DF8047B704700BF00700340A4
S113051080B582B000AF0020FFF7E4FF0948002156
S113052000F0D4F878607B68002B0CBF0123002313
S1130530DBB27B60034800217A6800F0ADF808372D
S1130540BD4680BDC0F00F4080B400AFBD465DF82D
S1130550047B704780B400AFBD465DF8047B7047F0
S113056080B400AFBD465DF8047B704780B500AF32
S1130570FFF770FF00F086F90448002101220123EF
S113058000F006F80A2000F04DFAFBE7C0F00F4037
S113059080B586B000AFF860B9603B601346FB716C
S11305A000237B610023FB74FB68234A934204D13C
S11305B04923FB74214B7B6122E0FB68204A934270
S11305C004D14A23FB741F4B7B6119E0FB681E4A6C
S11305D0934204D14B23FB741C4B7B6110E0FB68FA
S11305E01B4A934204D14C23FB741A4B7B6107E0F2
S11305F0FB68194A934203D14D23FB74174B7B616B
S1130600FB7C184600F0F8F97869B968012200F01B
S113061075F87869B968012200F070F8FB79F86818
S1130620B9681A4600F01CF8F868B9683A6800F02E
S113063033F81837BD4680BD00F00F4000900440E9
S113064040F00F4000A0044080F00F4000B0044090
S1130650C0F00F4000C0044000F10F4000D004403F
S113066080B485B000AFF860B9601346FB71FB68D5
S11306705A69BB68012101FA03F3DB431340F9799A
S1130680BA6801FA02F21A43FB685A611437BD468C
S11306905DF8047B704700BF80B485B000AFF8609C
S11306A0B9607A60FB681A68BB68012101FA03F338
S11306B0DB431A40BB68796801FA03F31A43FB6809
S11306C01A601437BD465DF8047B704780B483B06C
S11306D000AF786039607B681A693B68012101FAD0
S11306E003F31340002B01D0012300E0002318463C
S11306F00C37BD465DF8047B704700BF80B485B0FD
S113070000AFF860B9601346FB71FB68BA6853F830
S1130710223023F4E062FB791B0203F4E06342EA33
S11307200301FB68BA6843F822101437BD465DF82C
S1130730047B704780B582B000AF164BDB6803F0D2
S11307408003002B16D0134A124BDB6823F080037E
S1130750D36011480021FFF7B9FF78607B68002B54
S11307600CBF01230023DBB27B600B4800217A68B5
S1130770FFF792FF074B5B6903F08003002B05D062
S1130780044A044B5B6923F0800353610837BD4678
S113079080BD00BF00800340C0F00F4080B400AFB4
S11307A00D4BDB6803F08003002B05D00A4A0A4B8B
S11307B0DB6823F08003D360074B5B6903F080039D
S11307C0002B05D0044A044B5B6923F0800353617A
S11307D0BD465DF8047B70470080034080B582B05D
S11307E000AF164B1B6803F40073002B05D0134AAB
S11307F0124B1B6823F400731360104B1B6803F047
S11308008003002B05D00D4A0C4B1B6823F080039A
S113081013600B480021FFF759FF78607B68002BB9
S11308200CBF01230023DBB27B60054800217A68FA
S1130830FFF732FF0837BD4680BD00BF008003408C
S1130840C0F00F4080B400AF0D4BDB6B03F08003AE
S1130850002B05D00A4A0A4BDB6B23F08003D363D9
S1130860074B5B6C03F08003002B05D0044A044B58
S11308705B6C23F080035364BD465DF8047B7047D2
S113088000A0034080B483B000AF00BF574BD3F83F
S1130890003103F40003002BF8D1544B0022C3F8B9
S11308A00021524A514BD3F8083123F03C03C2F8DB
S11308B008314E4A4D4BD3F8083143F03403C2F8A3
S11308C008314A4A494BD3F8043123F4E06323F056
S11308D00703C2F80431454A444BD3F8043143F4C6
S11308E0807343F00103C2F80431404A3F4BD3F80C
S11308F0003123F4030323F00103C2F800313B4A1F
S11309003A4BD3F8003143F00103C2F8003100BF81
S1130910364BD3F8003103F08073002BF8D000BFBE
S1130920324BD3F8003603F40003002BF8D12F4BDD
S11309300022C3F800262D4A2C4BD3F8083623F4A2
S1130940F81323F4E063C2F80836284A274BD3F897
S1130950083643F4C013C2F80836244A234BD3F8AC
S1130960043623F4E06323F00703C2F804361F4A75
S11309701E4BD3F8043643F4407343F00203C2F829
S113098004361A4A194BD3F8003623F4030323F030
S11309900103C2F80036154A144BD3F8003643F06D
S11309A00103C2F8003600BF104BD3F8003603F041
S11309B08073002BF8D00D4B5B697B607A680C4B1D
S11309C013407B607A680B4B13437B60074A7B6858
S11309D0536100BF054B1B6903F070631B0E062BAC
S11309E0F8D10C37BD465DF8047B704700400640E3
S11309F000FFF0F01200010680B483B000AF03469C
S1130A00FB710749FB790648FA7950F8222042F035
S1130A10804241F823200C37BD465DF8047B7047C3
S1130A200050064080B485B000AF78607B68FB60FE
S1130A300CE04FF4FA53BB6002E0BB68013BBB60BF
S1130A40BB68002BF9D1FB68013BFB60FB68002B02
S1130A50EFD11437BD465DF8047B704780B483B092
S1130A6000AF00237B600023FB700023BB70304B7E
S1130A701B6B7B6002E0FB780133FB707B685B08D7
S1130A807B607B68002BF6D1FB78012202FA03F32A
S1130A901A46284B1B681340002B3ED0244AFB788F
S1130AA09B00203352F8233003F070631B0E224A5C
S1130AB013601F4AFB789B00203352F8233003F461
S1130AC070231B0C1D4A1360194AFB789B000133E9
S1130AD0203352F8233023F06043194A1360144A38
S1130AE0FB789B000233203352F82330154A1360FD
S1130AF00F4AFB789B000333203352F82330114A0A
S1130B0053600B4AFB789B00203352F823309BB28E
S1130B100D4A1360064B9B68BB70054AFB780121A4
S1130B2001FA03F313630C37BD465DF8047B704789
S1130B3000400240000000201400002010000020AB
S1130B400C000020040000201800002080B582B0B2
S1130B5000AF78600B46FB70FB787868194600F0AC
S1130B6013F800BFFA787B6853F8223003F080034F
S1130B70002BF7D0FA787B68123253F822309BB2FC
S1130B8018460837BD4680BD80B483B000AF786096
S1130B900B46FB707B681B6823F01F02FB7803F095
S1130BA01F031A437B681A600C37BD465DF8047B4B
S1130BB0704700BF80B500AF02480021FFF7C6FFB1
S1130BC080BD00BF00B0034080B400AF084B094AA9
S1130BD05A60074B5B68064B42F220121A60044BC2
S1130BE04FF6FF729A60BD465DF8047B704700BF04
S1130BF00020054020C528D980B48BB000AF304B0D
S1130C003B62304B7B61304BFB60304BFB61304BC4
S1130C103B61304BBB60304BBB61304B7B60304A37
S1130C20304B9A4218D000237B620AE02D4A7B6A3B
S1130C3052F823202A497B6A41F823207B6A013336
S1130C407B62294B9B087A6A9A42EFD34FF0E023E8
S1130C50234AC3F8082D04E04FF0E023214AC3F8E7
S1130C60082D09E07B691A783B6A1A703B6A0133E4
S1130C703B627B6901337B61FA687B699A42F1D1FB
S1130C8009E03B691A78FB691A70FB690133FB615F
S1130C903B6901333B61BA683B699A42F1D105E093
S1130CA0BB6900221A70BB690133BB617A68BB69F6
S1130CB09A42F5D12C37BD465DF8047B704700BFDE
S1130CC00084FF1FEC0C0000EC0C00000084FF1FEC
S1130CD0EC0C0000EC0C0000000000201C000020C4
S10F0CE00080FF1F000000000004000062
S9030411E7
