S01B000068656C6C6F5F776F726C645F7333326B3134342E7372656333
S1130000007000206D040000AD040000AD04000089
S1130010AD040000AD040000AD04000000000000C9
S1130020000000000000000000000000AD0400001B
S1130030AD04000000000000AD040000AD040000A9
S1130040AD040000AD040000AD040000AD040000E8
S1130050AD040000AD040000AD040000AD040000D8
S1130060AD040000AD040000AD040000AD040000C8
S1130070AD040000AD040000AD040000AD040000B8
S11303F0AD040000AD040000AD040000FFFFFFFFEA
S1130400FFFFFFFFFFFFFFFFFFFFFFFFFE7FFFFF79
S113041010B5054C237833B9044B13B10448AFF33A
S113042000800123237010BD0000002000000000A4
S1130430B0150000084B10B51BB108480849AFF3CC
S113044000800848036803B910BD074B002BFBD09C
S1130450BDE81040184700BF00000000B0150000C0
S113046004000020908DFF1F0000000072B60B49AD
S11304700A4A0A4B094C094D084E084FB846B9467A
S1130480BA46BB46BC4606488546064880470648E9
S1130490804762B600F016F8FEE700000000000096
S11304A000700020A1140000F1130000FFF7FEBF4C
S11304B082B00190019B5A1E0192002BFAD102B026
S11304C0704700BF08B515480121154A002300F004
S11304D0E7F80020014600F0F7F85920114900F030
S11304E0ADF8114C20464FF4C03100F0BBF8204663
S11304F04FF4004100F0B8F820464FF4803100F08A
S1130500B5F80A4E25464FF4C0343046FFF7D0FF05
S11305102846214600F0ACF8F7E700BF8C8DFF1F9A
S113052030000020A084FF1FC0F00F4080FC0A00B0
S1130530016809B900BEFEE730B4C57A012D04D1C3
S11305400369003318BF012300E001230BB900BE87
S1130550FEE744681F2C01D900BEFEE751F82430A1
S1130560027A012A06D012B1022A08D00AE023F046
S1130570020309E023F0010343F0020304E043F023
S1130580030301E000BEFEE7427A120102F010020A
S113059023F050031343827A920102F04002134382
S11305A02A0202F4E06223F407431A43037BDB03C9
S11305B09BB2134323F47022437B1B0403F4702384
S11305C01343827B0AB143F0807341F824300168FD
S11305D0D1F8C03044680122A24023EA0202437DDC
S11305E0A3401343C1F8C030C37A012B22D101695F
S11305F04B69027D12B1012A06D00AE04468012247
S1130600A24023EA020306E044680122A240134305
S113061001E000BEFEE74B61037D012B0AD10169B5
S11306200B6844680122A24023EA0202837DA340AE
S113063013430B60002030BC704700BFF8B570B1A5
S113064007460C46002635462046FFF771FF002872
S113065018BF064601351834BD42F5D100E0002626
S11306603046F8BD41617047416070478160704712
S1130670C1607047054B1B68002B05DD013B034A35
S11306801360002B00DC62B6704700BF1C00002022
S113069072B6024A13680133136070471C000020CD
S11306A008B900BEFEE710B404460AB900BEFEE76E
S11306B004480460017182600373437300205DF891
S11306C0044B7047200000202DE9F04383B0074617
S11306D03D4B1B79834201D800BEFEE70E468DF8E0
S11306E004008DF80510FFF7D3FF374A137B5373CB
S11306F001228DF806200BB300252C46DFF8C880B4
S113070040F20319D8F8083053F8243063B11A7949
S1130710022A09D01A6801A89968904720B188F87C
S11307200D40002E46D04D460134E4B298F80C300A
S1130730A342E7D81DB1012E29D100E00024224DA7
S11307402B6853F8270000F083FB6F710546F0B95E
S113075002238DF806301C4B1B7B73B300241A4F05
S11307604FF48278BB6853F8243053B11A79012AC4
S113077007D01A6801A89968904710B17C73B6B184
S113078045460134E4B23B7BA342EBD815E0002399
S11307908DF806300C4EB36853F824301BB11A6838
S11307A001A89968904744B1013CE4B2F3E74FF4DF
S11307B0827502E040F20315E9E7FFF75BFF284684
S11307C003B0BDE8F08300BF20000020074B5B6945
S11307D0DBB2042B06D0802B06D0012B0CBF0120EA
S11307E004207047022070470320704700E0074050
S11307F0044BD3F8003113F0807F1ABF024B186802
S113080000207047004006403400002010B584B03A
S11308100B46A1B900238DF80A308DF80B308DF802
S113082004308DF80C3001228DF808208DF8092051
S11308308DF805308DF806308DF807206B463B4A5D
S1130840D2F8002112F0007F6AD1384AD2F80011A0
S113085021F40001C2F800114FF08061C2F80011C8
S11308600021334A116000285CD05A7A120202F443
S1130870E0611A7A02F007020A432C48C0F8042106
S11308809979C90001F00801DA79120102F0300205
S113089011435A79920002F004020A43C0F8082175
S11308A01A79012A0FD012B1022A18D024E01A7B37
S11308B0002A14BF4FF40002002242F001021B4937
S11308C0C1F800211AE01A7B002A14BF4FF4000279
S11308D0002242F001121549C1F800210EE01A7BF2
S11308E0002A14BF4FF403024FF4403242F00102D5
S11308F00E49C1F8002101E000BEFEE71A680C4B66
S11309001A600C4C00E0013CFFF772FF18B9002C90
S1130910F9D1032007E0002C14BF0020032002E0DB
S1130920022000E0002004B010BD00BF00400640DB
S11309303400002088E73000094BD3F8003213F06C
S1130940807F0AD0064BD3F8080200F00102054864
S1130950054B002A18BF184670470020704700BF97
S11309600040064080841E0000127A0010B582B058
S11309700B4671B900238DF8043001228DF805204F
S11309808DF806308DF801208DF8022002AB03F8B3
S1130990082D254AD2F8002212F0007F3FD1224AC6
S11309A0D2F8001221F40001C2F800120021C2F8AA
S11309B00012002835D09A78120202F4E0615A78C5
S11309C002F007020A431849C1F804221A7802F017
S11309D00102C1F808225A7999791B79002B14BFB6
S11309E003230123002A14BF042200221A430029EE
S11309F014BF4FF40003002313430B4AC2F8003220
S1130A00642400E0013CFFF797FF18B9002CF9D1EA
S1130A10032007E0002C14BF0020032002E0022082
S1130A2000E0002002B010BD00400640084BD3F89F
S1130A30003313F0807F08D0054BD3F8083303F05C
S1130A400303044A52F8230070470020704700BF94
S1130A5000400640A015000010B582B00B4681B9D5
S1130A6000228DF803208DF8042001238DF8053031
S1130A708DF806208DF801308DF8023002AB03F8B2
S1130A80082D224AD2F8002312F0007F38D11F4AE1
S1130A90D2F8001321F40001C2F800134FF0806172
S1130AA0C2F8001370B39A78120202F4E0615A7823
S1130AB002F007020A431549C1F804231A7802F028
S1130AC00302C1F808239A795B79002B14BF092328
S1130AD00123002A14BF4FF4000200221343C1F87B
S1130AE00033142400E0013CFFF7A0FF18B9002CE8
S1130AF0F9D1032007E0002C14BF0020032002E0FA
S1130B00022000E0002002B010BD00BF00400640FB
S1130B1008B50F4BD3F8003613F0807F14D0FFF7DD
S1130B2067FE034688B10A49D1F80826C2F30222B7
S1130B300132B0FBF2F3D1F80826C2F304421032BA
S1130B4002FB03F35B0800E00023184608BD00BF66
S1130B500040064010B584B00C4691B900238DF8CE
S1130B600A308DF804308DF80B3001228DF80820FE
S1130B708DF809208DF805308DF806308DF8073092
S1130B8001AC3E4BD3F8003613F0007F71D13B4BE0
S1130B90D3F8002622F40002C3F800264FF0806246
S1130BA0C3F80026002866D0FFF722FE08B900BE6D
S1130BB0FEE762780132B0FBF2F3A3F5F403A3F588
S1130BC090532F4A934201D900BEFEE763791B027A
S1130BD003F4E062237903F0070313432749C1F8C0
S1130BE00436A3781B0403F4F81263781B0203F49D
S1130BF0E0631343C1F808362378012B11D013B1F5
S1130C00022B1AD026E0E379002B14BF4FF4000323
S1130C10002343F00103194AC2F800364FF47A74F2
S1130C201BE0E379002B14BF4FF40003002343F0CF
S1130C300113124AC2F80036F0E7E379002B14BF1F
S1130C404FF403034FF4403343F001030B4AC2F85B
S1130C500036E3E700BEFEE7013CFFF759FF18B991
S1130C60002CF9D1032007E0002C14BF002003203E
S1130C7002E0022000E0002004B010BD0040064065
S1130C8000366E012DE9F0418D784F7891F800809F
S1130C9008B900BEFEE706460C46CB78022B0BD003
S1130CA002D8012B05D010E0032B08D0062B09D065
S1130CB00BE0FFF79DFD09E0FFF73EFE06E0FFF7BE
S1130CC0B5FE03E0FFF724FF00E00020022E04D06D
S1130CD0032E07D0012E11D112E0E378022B11D09C
S1130CE000BEFEE7E378032B04D0062B14BF0023D9
S1130CF0012300E001233BB900BEFEE700BEFEE78E
S1130D00012202E0002200E002226B1C0C2101FB04
S1130D1002F1384D695801FB03F1814259D307FBB5
S1130D2003370C2101FB0251496801FB07F18142A1
S1130D3052D308FB03330C252E4905FB021292689B
S1130D4002FB03F383424AD34CE0E3781B0603F02F
S1130D507062A3781B0403F470231343227802F017
S1130D600F021A4363781B01DBB21343224A536117
S1130D700020BDE8F081E3781B0603F07062A378DD
S1130D801B0403F470231343227802F00F021A4366
S1130D9063781B01DBB21343174A93610020BDE85B
S1130DA0F081E3781B0603F07062A3781B0403F45C
S1130DB070231343227802F00F021A4363781B0155
S1130DC0DBB213430C4AD3610020BDE8F08100BEBE
S1130DD0FEE70120BDE8F0810120BDE8F08101209B
S1130DE0BDE8F081022EC6D0032EDAD0012EEED15A
S1130DF0ABE700BFDC1400000040064008B900BEA9
S1130E00FEE710B50446C378FF2B01D100BEFEE710
S1130E10FFF7DCFC042801D100BEFEE72146FFF702
S1130E2031FF034678B9E4780A220848013A016997
S1130E30C1F303618C4203D0002AF7D1032302E0FB
S1130E40002A08BF0323184610BD00BF0040064017
S1130E50F0B5A1B00446002840F09D8001238DF830
S1130E600B3000228DF80C208DF80D308DF80E20FB
S1130E708DF808308DF809308DF80A308DF8163069
S1130E808DF814308DF815208DF80F208DF8103062
S1130E908DF811308DF838300D928DF82530BB491E
S1130EA006918DF81C208DF824208DF81D308DF8C6
S1130EB01E2002208DF81F008DF820308DF821307F
S1130EC08DF830308DF828208DF82F208DF82920CA
S1130ED00C218DF82A108DF82B208DF82C308DF8EC
S1130EE02D308DF83D3003218DF83C108DF84B30BA
S1130EF08DF841108DF840208DF83F308DF83E304C
S1130F008DF845008DF844308DF843208DF842105B
S1130F1006208DF849008DF848208DF847308DF86B
S1130F2046109B491E9120211D918DF84C308DF85F
S1130F304D208DF84E208DF84F208DF850308DF8CF
S1130F4054308DF853308DF852208DF851208DF89F
S1130F5068308DF869308DF86A308DF86B308DF813
S1130F606C308DF86D308DF873308DF858301792E1
S1130F70189219928DF86E308DF86F308DF87020BC
S1130F808DF871208DF872208DF87C308DF87D30CD
S1130F908DF87E2002AC2646231C18BF01230BB912
S1130FA000BEFEE7002B00F0E9807A4B1B69C3F317
S1130FB00363032B1CD0FFF739FD38B9012000214E
S1130FC0FFF74AFD0546002840F0048203238DF80C
S1130FD0073000228DF8062001228DF8052020A874
S1130FE000F87C3DFFF70AFF0546002840F0F28137
S1130FF0E0783146FFF7BAFC054668B9607F04F132
S11310001001FFF703FC054630B994F8280004F1F9
S11310102001FFF79FFD0546FFF7D8FB022806D005
S1131020032807D0012808D104F1360607E004F1AB
S11310303A0604E004F13E0601E000BEFEE7002D9E
S113104067D1F378032B4FD194F82830002B00F0AC
S1131050AA8106238DF8073002238DF80630012378
S11310608DF8053020A800F87C3DFFF7C7FE054643
S1131070637F7BB101281FD101238DF80730002243
S11310808DF806208DF8053020A800F87C3DFFF788
S1131090B5FE0546E3787BB1012D0DD102238DF811
S11310A0073000238DF806308DF8053020A800F8AD
S11310B07C3DFFF7A3FE05465DBBA07BE11DFFF76A
S11310C0CBFC054628BBF3788DF80730B3788DF850
S11310D0063073788DF80530337820A800F87C3D0D
S11310E0FFF78CFE054614E08DF80730B3788DF8D1
S11310F0063073788DF80530337820A800F87C3DED
S1131100FFF77CFE054620B9A07BE11DFFF7A4FC98
S11311100546002D40F05E8194F8303013B1E26A48
S11311201D4B1A6094F8353053B11A490B6A23F0F9
S1131130706394F83420120602F0706213430B6259
S113114094F84330D3B1012004F13601FFF79AFD3E
S11311500546002840F03E81022004F13A01FFF7E1
S113116091FD0546002840F03581032004F13E013D
S1131170FFF788FD0546002840F02C8114F16C032C
S113118018BF012353B900BEFEE700BF00127A0066
S11311900084FF1F0040064038000020002B35D09B
S11311A0236F002B32D0E36E83B300228B488C4D27
S11311B002EB8201236F5B5C30F813309B0003F178
S11311C0804303F5CA231E6826F080461E60236F01
S11311D05E185F5CB3781B0603F0E061F378DB0014
S11311E003F008030B43317901F007010B437178D5
S11311F0002914BF4FF0804100210B4330F8171031
S113120045F821300132E36E9A42D1D314F1440FF0
S113121001D100BEFEE794F84430C3B194F84610FF
S113122094F847306F4A526822F47F6294F845007C
S1131230002814BF4FF4006000200901C9B21B024A
S113124003F4E0630B4313430343664A536094F887
S11312504830DBB194F84A2094F84930614909696F
S113126021F03F0194F84C00014394F84B0000280E
S113127014BF02200020920002F00C020A431B015A
S113128003F0300313430343564A136194F8603068
S1131290002B00F09A80534A136C23F0010394F856
S11312A061100B431364136C23F0020394F862205F
S11312B0002A14BF0222002213434A4A1364136C07
S11312C023F0040394F86320002A14BF04220022AC
S11312D01343444A1364136C23F0080394F8642002
S11312E0002A14BF0822002213433E4A1364136CDD
S11312F023F0100394F86520002A14BF1022002262
S11313001343384A136460E094F86630FBB13549FE
S11313108B6E00238B664B6823F4805394F868200B
S1131320120302F4805213434B6094F8693094F82A
S11313306A1094F86720002A14BF4FF080520022EC
S11313405B0003F00E030B431343264A936614F128
S1131350740F01D100BEFEE794F874300BB3224938
S11313608B7803F07F0394F8752082F0010243EA3E
S1131370C213DBB28B7094F8763013F0800F1CBF6D
S11313802033DBB2DAB2102A01D900BEFEE71649D7
S11313900A7903F01F0302F0E00213430B710025E6
S11313A018E0002516E0637F002B7FF465AEE37838
S11313B0002B7FF473AE01257EE60C4B626D1A6040
S11313C0A26D5A60E26D9A609EE794F85030002B4B
S11313D0F3D199E7284621B0F0BD00BF0015000005
S11313E0005006400080044000D007403C0000202C
S11313F010B41F4B1F4A9A420FD01F4CA40808D0A8
S11314001946002351F8040B42F8040B0133A3429C
S1131410F8D11A4B174A1A6002E0184B144A1A60A2
S1131420174B184A9A4208D01346174A144813F81F
S1131430011B02F8011B8342F9D1144B144A9A424E
S113144008D01346134A114813F8011B02F8011B74
S11314508342F9D1104B114A9A4206D01346002117
S11314600D4A03F8011B9342FBD15DF8044B70470E
S1131470000000000080FF1F0004000008ED00E0F1
S1131480641F0000D01500000084FF1F641F0000CB
S1131490641F0000948DFF1F4800002000000020FE
S11314A04FF0E023D3F8882D42F47002C3F8882D5E
S11314B0D3F8342F22F08042C3F8342F054B064A68
S11314C05A605A6842F220121A604FF6FF729A600C
S11314D0704700BF0020054020C528D900093D0001
S11314E000093D0040420F0000B4C404005A6202E7
S11314F0B0F3960100FCAC06007E5603003FAB013E
S113150000000000000000000000000000000000D7
S113151000000000000000000000000000000000C7
S113152000000000000000000000000000000000B7
S113153000000000000000000000000000000000A7
S11315400000000000000000000000000000000097
S11315500000730032002100610049004A004B0082
S11315604C004D003D000000240025002B003600F7
S11315703100000020000000380039003A00260045
S113158000003B0027005A00660037002C002D00A5
S11315902E0040006A006B006C0000000000000098
S11315A0006CDC0200751903007E56030087930368
S11315B0F8B500BFF8BC08BC9E467047F8B500BF3C
S10B15C0F8BC08BC9E4670470C
S10715C835040000E2
S10715CC1104000002
S11315D04101020000420102000029010000002A2A
S11315E0010000002B010000002C01000000340168
S11315F00000003501000000360100000043010234
S113160000003A010000003C010200003D0102001C
S1131610003E010200003F010200004401020000FC
S11316204501020000460102000047010200004893
S11316300102000049010200004A010200004B01BE
S11316400200004C010200003701000000380100D4
S113165000002D010000002E010000002F010000F9
S113166000300100000031010000003201000000E0
S113167000D0044010000000000000000000000042
S1131680000000000000000000D004400F00000033
S11316900000000000000000000000000000000046
S11316A000C0044001000000000000000000000031
S11316B0000000000000000000C004400000000022
S11316C00000000000000000000000000000000016
S11316D000D004400B0000000000000000000000E7
S11316E0000000000000000000D004400A000000D8
S11316F000000000000000000000000000000000E6
S113170000D004400D0000000000000000000000B4
S1131710000000000000000000D0044005000000AC
S113172000000000000000000000000000000000B5
S113173000D004400400000000000000000000008D
S1131740000000000000000000A0044007000000AA
S11317500000000000000000000000000000000085
S113176000A004400600000000000000000000008B
S1131770000000000000000000D004400E00000043
S11317800000000000000000000000000000000055
S113179000D004400300000000000000000000002E
S11317A0000000000000000000D004400C00000015
S11317B00000000000000000000000000000000025
S11317C000C0044011000000000000000000000000
S11317D0000000000000000000C0044010000000F1
S11317E00000000100000000C0F00F4001000000F4
S11317F000C004400F0000000000000100000000D1
S1131800C0F00F400100000000D0044009000000B7
S113181000000000000000000000000000000000C4
S113182000C004400E0000000000000000000000A2
S1131830000000000000000000C004400D00000093
S11318400000000000000000000000000000000094
S113185000D0044008000000000000000000000068
S1131860000000000000000000A00440050000008B
S11318700000000000000000000000000000000064
S113188000A004400400000000000000000000006C
S1131890000000000000000000B00440030000004D
S11318A00000000000000000000000000000000034
S11318B000B004400200000000000000000000002E
S11318C0000000000000000000C004400700000009
S11318D00000000000000000000000000000000004
S11318E000C00440060000000000000000000000EA
S11318F0000000000000000000C0044005000000DB
S113190000000000000000000000000000000000D3
S113191000C004400C0000000000000000000000B3
S1131920000000000000000000C004400B000000A4
S113193000000000000000000000000000000000A3
S113194000C004400A000000000000000000000085
S1131950000000000000000000B00440010000008E
S1131960000000010000000080F00F4001000000B2
S113197000B004400000000000000001000000006E
S113198080F00F400100000000C004400900000086
S11319900000000000000000000000000000000043
S11319A000C0044008000000000000000000000027
S11319B0000000000000000000B00440110000001E
S11319C00000000000000000000000000000000013
S11319D000B00440100000000000000000000000FF
S11319E0000000000000000000B004400F000000F0
S11319F000000000000000000000000000000000E3
S1131A0000B004400E0000000000000000000000D0
S1131A10000000000000000000A0044003000000DB
S1131A2000000000000000000000000000000000B2
S1131A3000A00440020000000000000000000000BC
S1131A40000000000000000000B004400D00000091
S1131A500000000000000000000000000000000082
S1131A6000B004400C000000000000000000000072
S1131A70000000000000000000B004400B00000063
S1131A800000000000000000000000000000000052
S1131A9000B004400A000000000000000000000044
S1131AA0000000000000000000A00440010000004D
S1131AB00000000000000000000000000000000022
S1131AC000A004400000000000000000000000002E
S1131AD0000000000000000000B004400900000005
S1131AE000000000000000000000000000000000F2
S1131AF000B00440080000000000000000000000E6
S1131B0000000000000000000090044007000000F6
S1131B1000000000000000000000000000000000C1
S1131B2000900440060000000000000000000000D7
S1131B30000000000000000000D004400700000086
S1131B400000000000000000000000000000000091
S1131B50009004401100000000000000000000009C
S1131B60000000000000000000A00440110000007C
S1131B700000000000000000000000000000000061
S1131B8000A004401000000000000000000000005D
S1131B90000000000000000000A004400F0000004E
S1131BA00000000000000000000000000000000031
S1131BB000A004400E00000000000000000000002F
S1131BC0000000000000000000A004400D00000020
S1131BD00000000000000000000000000000000001
S1131BE000A004400C000000000000000000000001
S1131BF0000000000000000000C0044004000000D9
S1131C0000000000000000000000000000000000D0
S1131C1000C00440030000000000000000000000B9
S1131C20000000000000000000C0044002000000AA
S1131C3000000000000000000000000000000000A0
S1131C4000900440030000000000000000000000B9
S1131C5000000000000000000090044002000000AA
S1131C600000000000000000000000000000000070
S1131C7000A004400B000000000000000000000071
S1131C80000000000000000000A004400A00000062
S1131C900000000000000000000000000000000040
S1131CA000A0044009000000000000000000000043
S1131CB0000000000000000000A004400800000034
S1131CC00000000000000000000000000000000010
S1131CD0009004400100000000000000000000002B
S1131CE0000000000000000000900440000000001C
S1131CF000000000000000000000000000000000E0
S1131D0000B00440070000000000000000000000D4
S1131D10000000000000000000B0044006000000C5
S1131D2000000000000000000000000000000000AF
S1131D3000900440100000000000000000000000BB
S1131D400000000000000000009004400F000000AC
S1131D50000000000000000000000000000000007F
S1131D6000D0044006000000000000000000000055
S1131D70000000000000000000D004400200000049
S1131D80000000000000000000000000000000004F
S1131D90009004400E00000000000000000000005D
S1131DA00000000000000000009004400D0000004E
S1131DB0000000000000000000000000000000001F
S1131DC0009004400C00000000000000000000002F
S1131DD00000000000000000009004400B00000020
S1131DE000000000000000000000000000000000EF
S1131DF0009004400A0000000000010700000000F9
S1131E00000000000000000000D0044001000000B9
S1131E1000000000000000000000000000000000BE
S1131E2000D004400000000000000000000000009A
S1131E30000000000000000000B0044005000000A5
S1131E400200000700000000000000000000000085
S1131E5000B004400400000001000007000000007E
S1131E600000000000000000009004400500000095
S1131E700201000700000000000000000000000054
S1131E80009004400400000002000007000000006D
S1131E900000000000000000009004400900000061
S1131EA0000000000000000000000000000000002E
S1131EB00090044008000000000000000000000042
S1131EC00000000000000000010101010101000008
S1131ED0010100000100010000127A00000100026B
S1131EE0010100000001000000000C0001010000DD
S1131EF001000000000000000100000003010101D6
S1131F0000030300010203010006000101000000B8
S1131F1001000001010000000100000000000000B9
S1131F2000000000000000000101010101010101A5
S1131F300000000005000000708DFF1F010100007B
S1131F402D010000002E010000002F0100000030D0
S1131F50010000003101000000000000F88CFF1FA8
S1071F600000000079
S903046D8B
